S015000066696E616C2070726F6A6563742E73726563EE
S11300000C942A000C943C000C943C000C943C008E
S11300100C943C000C943C000C943C000C943C006C
S11300200C943C000C943C000C94CE020C94F5020D
S11300300C943C000C943C000C943C000C943C004C
S11300400C943C000C943C000C943C000C943C003C
S11300500C943C0011241FBECFE5D8E0DEBFCDBF19
S113006020E0A0E6B0E001C01D92AD36B207E1F792
S11300700E943D010C941C030C94000081B3806821
S113008081BB85B5886485BD85B5816285BD0895CC
S113009041E06FEF80E00E94B20161E080E00E94E5
S11300A0570280936A0062E080E00E9457028093C6
S11300B06B0064E080E00E94570280936C0068E06B
S11300C080E00E9457028093680060E180E00E9413
S11300D057028093660060E280E00E94570280939A
S11300E0690060E480E00E9457028093600060E849
S11300F080E00E945702809367000895CF93C82F31
S113010040E06EE782E00E94B201C330C1F028F4FF
S1130110C13049F0C23069F029C0C530E1F0A8F01F
S1130120C630F9F023C041E062E082E00E941B0285
S11301301DC041E062E082E00E941B0217C041E062
S113014068E082E00E941B0211C041E060E182E0AD
S11301500E941B020BC041E060E282E00E941B028D
S113016005C041E060E482E00E941B02CF91089543
S1130170CF93DF93C82FD62F40E06FEF83E00E9428
S1130180B201C11106C040E06FEF83E00E941B0280
S113019071C0C130B9F5D230A1F018F4D13031F0CA
S11301A069C0D330C9F0D43011F164C041E061E0DA
S11301B083E00E941B0240E062E083E00E941B0295
S11301C059C041E064E083E00E941B0240E068E023
S11301D083E00E941B024EC041E060E183E00E9484
S11301E01B0240E060E283E00E941B0243C041E046
S11301F060E283E00E941B0240E060E483E00E942E
S11302001B0238C0C230B1F5D230A1F018F4D1309D
S113021031F030C0D330C9F0D43011F12BC040E0FC
S113022061E083E00E941B0240E062E083E00E9400
S11302301B0220C040E064E083E00E941B0240E017
S113024068E083E00E941B0215C040E060E183E0A7
S11302500E941B0240E060E283E00E941B020AC08D
S113026040E060E283E00E941B0240E060E483E03F
S11302700E941B02DF91CF91089540E06AE081E083
S11302800E94B20161E082E00E947D020E943E0071
S113029062E080E00E94B80085E383BD61E082E013
S11302A00E947D0262EB82E00E94B90262EB82E06E
S11302B00E94B9020E94480080916A00813041F492
S11302C061E00E94B80041E062E081E00E941B020C
S11302D080916B00813041F461E00E94B80040E0FD
S11302E062E081E00E941B0280916C00813019F46D
S11302F062E00E94B80080916800813049F462E0B5
S11303000E94B80081E00E947E0082E00E947E008C
S113031080916600813019F463E00E94B8008091F6
S11303206900813049F463E00E94B80083E00E94D0
S11303307E0084E00E947E0080916000813019F488
S113034064E00E94B80080916700813009F0AECF6C
S113035064E00E94B80085E00E947E0086E00E946E
S11303607E00A4CF8130F9F030F08230A1F18330E7
S113037009F449C00895413041F018F0423051F079
S113038008958AB3682B6ABB08958AB3609568237D
S11303906ABB08958AB3962F909589238ABB8BB341
S11303A0682B6BBB0895413041F018F0423051F096
S11303B0089587B3682B67BB089587B36095682356
S11303C067BB089587B3962F9095892387BB88B31D
S11303D0682B68BB0895413041F018F0423051F069
S11303E0089584B3682B64BB089584B3609568232F
S11303F064BB089584B3962F9095892384BB85B3F9
S1130400682B65BB0895413041F018F0423051F03B
S1130410089581B3682B61BB089581B36095682307
S113042061BB089581B3962F9095892381BB82B3D4
S1130430682B62BB0895813099F028F08230E9F08E
S1130440833041F10895442331F0413079F58BB381
S1130450682B6BBB08958BB3609568236BBB0895C1
S1130460442331F0413011F588B3682B68BB0895FB
S113047088B36095682368BB0895442331F0413004
S1130480A9F485B3682B65BB089585B3609568238B
S113049065BB0895442331F0413041F482B3682BA5
S11304A062BB089582B36095682362BB089581306E
S11304B059F028F0823069F0833081F014C089B398
S11304C0682399F081E0089586B3682381F081E080
S11304D0089583B3682369F081E0089580B36823A5
S11304E051F081E0089580E0089580E0089580E06F
S11304F0089580E0089580E008956093610082305B
S1130500B1F018F4813031F026C08330B9F0843072
S1130510E1F021C083B78F7B83BF83B7877F83BF1D
S113052083B78F7E83BF83B78F7D83BF14C083B7A8
S1130530806483BF83B7877F83BF0DC083B78F7BFE
S113054083BF83B7886083BF06C083B7806483BFDB
S113055083B7886083BF8FB780688FBF40E068E04F
S113056081E00E94B20193B780916100892B83BF1F
S11305700895823041F483B78F7E83BF83B780624E
S113058083BF6CBF0895833041F483B7806183BF18
S113059083B7806283BF60956CBF08951F920F92EA
S11305A00FB60F9211242F933F934F935F936F9342
S11305B07F938F939F93AF93BF93EF93FF93E091B8
S11305C06200F09163000995FF91EF91BF91AF91A3
S11305D09F918F917F916F915F914F913F912F9157
S11305E00F900FBE0F901F9018951F920F920FB689
S11305F00F9211242F933F934F935F936F937F93A5
S11306008F939F93AF93BF93EF93FF93E091640015
S1130610F09165000995FF91EF91BF91AF919F9182
S11306208F917F916F915F914F913F912F910F9097
S10F06300FBE0F901F901895F894FFCF98
S9030000FC
