S015000066696E616C2070726F6A6563742E73726563EE
S11300000C942A000C943C000C943C000C943C008E
S11300100C943C000C943C000C943C000C943C006C
S11300200C943C000C943C000C943A020C94610235
S11300300C943C000C943C000C943C000C943C004C
S11300400C943C000C943C000C943C000C943C003C
S11300500C943C0011241FBECFE5D8E0DEBFCDBF19
S113006020E0A0E6B0E001C01D92AE36B207E1F791
S11300700E9404010C9488020C94000081B38068EF
S113008081BB85B5886485BD85B5816285BD0895CC
S113009041E06FEF80E00E941E0141E060E483E0F4
S11300A00E941E0161E080E00E94C30180936B0006
S11300B062E080E00E94C30180936C0064E080E011
S11300C00E94C30180936D0068E080E00E94C30138
S11300D08093690060E180E00E94C3018093660020
S11300E060E280E00E94C30180936A0060E480E0E3
S11300F00E94C3018093680060E880E00E94C3010D
S11301008093670060E483E00E94C30180936000F1
S11301100895CF93DF93C82FD62F40E06FEF83E08D
S11301200E941E01C11106C040E06FEF83E00E94EF
S1130130870167C0C13091F5D230A1F018F4D130F5
S113014031F05FC0D330C9F0D430E9F05AC041E097
S113015061E083E00E94870140E062E083E00E9466
S113016087014FC041E064E083E00E94870140E0E2
S113017068E083E00E94870144C041E060E183E0DD
S11301800E9487013EC041E060E283E00E94870153
S113019040E060E483E00E94870133C0C23089F507
S11301A0D230A1F018F4D13031F02BC0D330C9F0E3
S11301B0D430E9F026C040E061E083E00E9487018A
S11301C040E062E083E00E9487011BC040E064E0FD
S11301D083E00E94870140E068E083E00E94870199
S11301E010C040E060E183E00E9487010AC040E063
S11301F060E283E00E94870140E060E483E00E94C3
S11302008701DF91CF91089540E06AE081E00E9488
S11302101E0161E082E00E94E9010E943E0062E06A
S113022080E00E94890061E082E00E94E90162EBC3
S113023082E00E9425020E944800F9CF8130F9F043
S113024030F08230A1F1833009F449C0089541307F
S113025041F018F0423051F008958AB3682B6ABB1C
S113026008958AB3609568236ABB08958AB3962F6C
S1130270909589238ABB8BB3682B6BBB089541305F
S113028041F018F0423051F0089587B3682B67BBF2
S1130290089587B36095682367BB089587B3962F45
S11302A09095892387BB88B3682B68BB0895413038
S11302B041F018F0423051F0089584B3682B64BBC8
S11302C0089584B36095682364BB089584B3962F1E
S11302D09095892384BB85B3682B65BB0895413011
S11302E041F018F0423051F0089581B3682B61BB9E
S11302F0089581B36095682361BB089581B3962FF7
S11303009095892381BB82B3682B62BB08958130A9
S113031099F028F08230E9F0833041F108954423C4
S113032031F0413079F58BB3682B6BBB08958BB3F7
S1130330609568236BBB0895442331F0413011F577
S113034088B3682B68BB089588B36095682368BB3D
S11303500895442331F04130A9F485B3682B65BB7B
S1130360089585B36095682365BB0895442331F0EF
S1130370413041F482B3682B62BB089582B3609527
S1130380682362BB0895813059F028F0823069F007
S1130390833081F014C089B3682399F081E0089513
S11303A086B3682381F081E0089583B3682369F0FC
S11303B081E0089580B3682351F081E0089580E0DE
S11303C0089580E0089580E0089580E0089580E035
S11303D00895609361008230B1F018F4813031F0F7
S11303E026C08330B9F08430E1F021C083B78F7B1D
S11303F083BF83B7877F83BF83B78F7E83BF83B772
S11304008F7D83BF14C083B7806483BF83B7877F26
S113041083BF0DC083B78F7B83BF83B7886083BFDF
S113042006C083B7806483BF83B7886083BF8FB7F8
S113043080688FBF40E068E081E00E941E0193B7AE
S113044080916100892B83BF0895823041F483B782
S11304508F7E83BF83B7806283BF6CBF0895833070
S113046041F483B7806183BF83B7806283BF6095A3
S11304706CBF08951F920F920FB60F9211242F9301
S11304803F934F935F936F937F938F939F93AF9318
S1130490BF93EF93FF93E0916200F091630009959D
S11304A0FF91EF91BF91AF919F918F917F916F9148
S11304B05F914F913F912F910F900FBE0F901F901E
S11304C018951F920F920FB60F9211242F933F93FA
S11304D04F935F936F937F938F939F93AF93BF9348
S11304E0EF93FF93E0916400F09165000995FF910B
S11304F0EF91BF91AF919F918F917F916F915F9198
S11305004F913F912F910F900FBE0F901F90189510
S1070510F894FFCF89
S9030000FC
